{
  "contractName": "Transactions",
  "abi": [
    {
      "constant": false,
      "inputs": [
        {
          "name": "_receiver",
          "type": "address"
        }
      ],
      "name": "sendEther",
      "outputs": [],
      "payable": true,
      "stateMutability": "payable",
      "type": "function",
      "signature": "0x48c981e2"
    }
  ],
  "bytecode": "0x608060405234801561001057600080fd5b50610175806100206000396000f3fe608060405260043610610041576000357c0100000000000000000000000000000000000000000000000000000000900463ffffffff16806348c981e214610046575b600080fd5b6100886004803603602081101561005c57600080fd5b81019080803573ffffffffffffffffffffffffffffffffffffffff16906020019092919050505061008a565b005b600073ffffffffffffffffffffffffffffffffffffffff168173ffffffffffffffffffffffffffffffffffffffff16141580156100f45750600073ffffffffffffffffffffffffffffffffffffffff163373ffffffffffffffffffffffffffffffffffffffff1614155b15156100ff57600080fd5b8073ffffffffffffffffffffffffffffffffffffffff166108fc349081150290604051600060405180830381858888f19350505050158015610145573d6000803e3d6000fd5b505056fea165627a7a72305820c0b5400839da4ec53817358d9faa601cf3541e3c7eda26116b812aa117252a9a0029",
  "source": "pragma solidity >=0.4.21 <0.7.0;\r\n\r\ncontract Transactions{\r\n\r\n\r\n    function sendEther(address payable _receiver) public payable{\r\n        require(_receiver!=address(0) && msg.sender!=address(0));\r\n        address(_receiver).transfer(msg.value);\r\n    }\r\n\r\n}",
  "sourcePath": "D:/Blockchain Development/Transactions trail/application/src/contracts/Transactions.sol",
  "compiler": {
    "name": "solc",
    "version": "0.5.0+commit.1d4f565a.Emscripten.clang"
  },
  "schemaVersion": "3.0.1",
  "updatedAt": "2021-08-21T18:55:07.561Z",
  "devdoc": {
    "methods": {}
  },
  "userdoc": {
    "methods": {}
  }
}